:100000000C9434000C943E000C943E000C943E0082
:100010000C943E000C943E000C943E000C943E0068
:100020000C943E000C943E000C943E000C943E0058
:100030000C943E000C943E000C943E000C943E0048
:100040000C943E000C943E000C943E000C943E0038
:100050000C943E000C943E000C943E000C943E0028
:100060000C943E000C943E0011241FBECFEFD8E04C
:10007000DEBFCDBF0E9440000C9457000C940000DE
:100080008AB18AB98CEF8BB980E284B999B139B160
:1000900089B1807129B192FF02C033FD05C0882368
:1000A00021F0822F807225FD80E285B9EFCFF89490
:0200B000FFCF80
:00000001FF
